:020000040000FA
:0600000057EF04F01200AE
:0600080043EF00F01200BE
:0600180032EF00F01200BF
:06002A000100F4080000D3
:08003000BA0000000800000006
:080038000000000000000000C0
:10004000010EE66E65EC04F0E5521200060EE66E57
:100050001AEC04F0E5521200020EE66E1AEC04F0FF
:10006000E5521200D8CFE4FFE0CFE4FFE46EDACF30
:10007000E4FFE652E552E5CFDAFFE550E5CFE0FFD9
:10008000E5CFD8FF1000DACFE4FFE2CFDAFFE9CF07
:10009000E4FFEACFE4FFF6CFE4FFF7CFE4FFF5CFCC
:1000A000E4FFF3CFE4FFF4CFE4FFFACFE4FF00EE88
:1000B00000F0140EE80403E3EECFE4FFFBD700EEFC
:1000C00014F0020EE80403E3EECFE4FFFBD7E652A0
:1000D000F29EF2A20DD00001010EC01908E1C1513B
:1000E00006E1BC2B000EBD238270C06BC16BF29287
:1000F000A1A209D08276A192D5D80001BA2B000E18
:10010000BB23BE2BBF23F28EE55200EE15F0020E8C
:10011000E80403E3E5CFEDFFFBD700EE13F0140E88
:10012000E80403E3E5CFEDFFFBD7E5CFFAFFE5CF2A
:10013000F4FFE5CFF3FFE5CFF5FFE5CFF7FFE5CF20
:10014000F6FFE5CFEAFFE5CFE9FFE5CFDAFF1100E3
:10015000F00EE66EBCEC03F0E552A4D8D08E12008F
:10016000280EE66E4EEC02F0E552A4D8FEE1280E11
:1001700094D8A0D8FEE10F0E90D89CD8FEE1060ED0
:100180004DEF01F0949493809490826AF288F18C00
:100190001200DEDFE5DFC2EF00F0D9CFE6FFE1CFEE
:1001A000D9FF020EE126DE6ADD6A0C0E086E096ACE
:1001B000BCC00DF0BDC00EF09BEC02F006C0DEFF2F
:1001C00007C0DDFFDECF14F0DDCF15F014C0F3FF64
:1001D00015C0F4FF020EE15C02E2E16AE552E16E55
:1001E000E552E7CFD9FF1200D9CFE6FFE1CFD9FF23
:1001F000090EE126020EDB6A030EDB6A070EDB6ADC
:10020000080EDB6AC6DFF28E0001030EBE1907E19D
:10021000BF5105E1010EC06FC16BBE6BBF6B320EEB
:10022000BA19F2E1BB51F0E18274B7DF070EF3CFE8
:10023000DBFF080EF4CFDBFF41D8070EDBCFE6FF74
:10024000080EDBCFE6FF65EC01F0E552E552E55222
:10025000E55230D8FEE1010E20D82CD8FEE1E66A46
:10026000C8EC02F0E552E00EE66E080EE66E9AEC7F
:1002700003F0E552E5521ED8FEE1400EE66EC8ECF2
:1002800002F0E5521BD8DDEC03F0E552E552000127
:10029000BA6BBB6BBC6BBD6BB7D7E66E33EC03F0D0
:1002A000E5521200E66ACF0EE66EFEEC03F0E55270
:1002B000E552120031EC04F000091200D950040F8D
:0A02C000E66E000EDA20E66E120072
:0602CA00D9CFE6FFDACFF8
:1002D000E6FFFA0EE3CFD9FFFB0EE3CFDAFFFD0E08
:1002E000E35209E72D0EDE6EFC0EE31EE32AFD0E3F
:1002F000D8B4E306E31EE652E652E652FD0EE124D0
:10030000E76EFF0EE220E46EE652F70EE3CFE6FF63
:10031000F70EE3CFE6FFD5EC01F0F90EE124E96E2C
:10032000FF0EE220EA6EC5EC01F00AE1C2EC01F03A
:1003300009E1C5EC01F008E1C2EC01F007E108D0E9
:10034000D0EC01F0CBEC01F0D0EC01F0CBEC01F003
:10035000D0EC01F0DE6AF90EE126FF0EE222FF0E7C
:10036000E3CFDAFFE552FF0EE3CFD9FFE552FC0EF3
:10037000E124E96EFF0EE220EA6EEECFF3FFEFCF4D
:10038000F4FF1200EF380F0B1200EF500F0B02E1D9
:10039000EE52D8841200EF380F0B300FDE6E1200D1
:1003A000EE500F0B300FDE6E1200FC0EE3CFE9FFB4
:1003B000FD0EE3CFEAFF100EE66EEE6AEE6AEF6A1C
:1003C000D890FD0EE336FE0EE336ED36ED36EF3611
:1003D000FF0EE30609E0F6EC01F0EE52F6EC01F058
:1003E000EE52F6EC01F0EDD7E56E1200030EEF24AD
:0E03F000E8B6EF6E300EEF24E8BEEF6E000CA4
:0203FE002A0EC5
:10040000F66E000EF76E000EF86E00010900F55052
:10041000B56F0900F550B66F03E1B56701D03DD067
:100420000900F550B06F0900F550B16F0900F550A3
:10043000B26F09000900F550E96E0900F550EA6E47
:10044000090009000900F550B36F0900F550B46FB9
:1004500009000900F6CFB7F0F7CFB8F0F8CFB9F040
:10046000B0C0F6FFB1C0F7FFB2C0F8FF0001B35350
:1004700002E1B45307E00900F550EE6EB307F8E26D
:10048000B407F9D7B7C0F6FFB8C0F7FFB9C0F8FF97
:0C0490000001B507000EB65BBFD71200DC
:04049C00D9CFE6FFCF
:1004A000E1CFD9FF0F0E83169516959495929590EE
:1004B0008C948C928C9026EC00F0300E33D8050E84
:1004C000E66E1AEC04F0E552300E2CD8010EE66E02
:1004D0001AEC04F0E552320E25D829D8FEE127D8CF
:1004E000FEE1FE0EDBCFE6FF33EC03F0E5521FD852
:1004F000FEE1080E17D81BD8FEE10F0E13D817D84F
:10050000FEE1010E0FD813D8FEE1040E0BD80FD870
:10051000FEE1800EE66EC8EC02F0E552E552E7CF50
:10052000D9FF1200E66E33EC03F0E552120031EC15
:0605300004F000091200B6
:0A05360009C013F008C012F00850CD
:100540000D02F4CF07F0F3CF06F009500E02F4CFFE
:1005500009F0F3CF08F00D02F3500726F4500822FB
:10056000E86A092212500E02F3500726F4500822BE
:10057000E86A09220EAEC1EF02F01250085E135075
:10058000095A13AE000C0D50085E0E50095A000CAB
:10059000D9CFE6FFE1CFD9FF0F0E95168316FE0ED9
:1005A000DB508009F00B83128C948C920ED80F0EC6
:1005B0008316FE0EDB38F00BF00B831206D8F00E1C
:1005C0009512E552E7CFD9FF12001CEC00F08C80A9
:0805D0001CEC00F08C901200FD
:0805D800D9CFE6FFE1CFD9FF06
:1005E0000F0E95168316FE0EDB504009F00B83129A
:1005F0008C948C920ED80F0E8316FE0EDB38F00B07
:10060000F00B831206D8F00E9512E552E7CFD9FF12
:1006100012001CEC00F08C801CEC00F08C9012009E
:10062000D9CFE6FFE1CFD9FF0F0E95168316FE0E48
:10063000DB50F00B83128C828C940ED80F0E831635
:10064000FE0EDB38F00BF00B831206D8F00E95127D
:10065000E552E7CFD9FF12001CEC00F08C801CECB7
:0606600000F08C90120076
:0A066600D9CFE6FFE1CFD9FF0F0E58
:1006700095168316FE0EDB50F00B83128C948C9231
:100680000ED80F0E8316FE0EDB38F00BF00B831224
:1006900006D8F00E9512E552E7CFD9FF12001CECF8
:0C06A00000F08C801CEC00F08C9012002C
:0406AC00D9CFE6FFBD
:1006B000E1CFD9FFE6528C848C821CEC00F08C8058
:1006C0001CEC00F0F00E8314DF6E8C901CEC00F03C
:1006D0008C801CEC00F083380F0B0F0BDF128C901A
:1006E0008C928C94DF50E552E552E7CFD9FF12008F
:1006F000D9CFE6FFE1CFD9FFE6528C848C921CEC77
:1007000000F08C801CEC00F0F00E8314DF6E8C90F7
:100710001CEC00F08C801CEC00F083380F0B0F0BEE
:10072000DF128C908C947F0EDF14E552E552E7CFF8
:04073000D9FF1200DB
:0C073400D9CFE6FFE1CFD9FF14D80FE0C9
:1007400031EC04F00009FCE10ED8E66E10EC03F089
:10075000E552FD0EDB2AFE0EF1E3DB2AEFD7E55270
:10076000E7CFD9FF1200FD0EDBCFF6FFFE0EDBCF89
:08077000F7FF0800F55012002C
:08077800D9CFE6FFDACFE6FF5E
:10078000E1CFD9FFE2CFDAFFFD0EDB50360BB16EC1
:10079000B36AB26AA192FD0EDBAE02D0A08201D094
:1007A000A092DBA002D0B18E01D0B19EB180E55203
:0A07B000E5CFDAFFE7CFD9FF120012
:0607BA00D9CFE6FFE1CFFC
:1007C000D9FF14D80FE031EC04F00009FCE10ED899
:1007D000E66E10EC03F0E552FD0EDB2AFE0EF1E3AF
:1007E000DB2AEFD7E552E7CFD9FF1200FD0EDBCFB2
:0C07F000E9FFFE0EDBCFEAFFEF50120025
:0407FC00D9CFE6FF6C
:10080000DACFE6FFE1CFD9FFE2CFDAFFE652E652D8
:10081000FC0EDBCFDEFFDBCFDDFF010EDB50B36E66
:10082000DF50B26EE552E552E552E5CFDAFFE7CF91
:04083000D9FF1200DA
:0C083400FF0EE350176EEF0E01D0F30E24
:10084000E76EE72E21EF04F00C0E166EE76AE72E36
:1008500027EF04F0162E26EF04F0172E1FEF04F0FA
:02086000120084
:0E0862008C848C921CEC00F08C801CEC00F05E
:1008700083AE02D003D8010C01D8000C8C901CEC84
:0E08800000F08C801CEC00F08C908C94120028
:02088E00000E5A
:10089000F36E00EE00F0060E01D81200EA6002D0FE
:0E08A000EE6AFCD7F350E9601200EE6AFCD756
:0208AE0010EE4A
:1008B00080F020EE80F0F86A019CFFEC01F079EC0A
:0A08C00004F0F4EC00F0FBD7120086
:0608CA00FF0EE350E84EB2
:1008D0001200000000D000D000D0E82EFAD712009D
:1008E000486561727420526174652842504D293AFE
:0108F0000007
:0208F2001200F2
:0808F4000000000000000100FB
:020000040030CA
:0100010022DC
:010003000EEE
:010006008178
:00000001FF
